:100000000C942A000C9434000C9434000C943400AA
:100010000C9434000C9434000C9434000C94340090
:100020000C9434000C9434000C9434000C94340080
:100030000C9434000C9434000C9434000C94340070
:100040000C9434000C9434000C9434000C94340060
:100050000C94340011241FBECFE5D8E0DEBFCDBF25
:100060000E943F000C9461000C94000083EC99E026
:1000700097BD86BD82E88FBD8BE08EBD089581B3AC
:10008000806281BB1DBC1CBC0E9436008CE291E0EA
:100090009BBD8ABD2FEF83ED90E3215080409040BF
:1000A000E1F700C0000081E490E09BBD8ABD2FEF26
:1000B00083ED90E3215080409040E1F700C00000C4
:0600C000E5CFF894FFCF2C
:00000001FF
